:0300000002056096
:0C056000787FE4F6D8FD75813F0205A706
:0D089E00436C6F636B3A0054696D653A005E
:0208C900C1006C
:05000300120008D2A16B
:0100080022D5
:0A08AB00D2A0120003C2A002000850
:0A08B500C2A0120003D2A002000846
:0807B8001208AB7FA012076BD1
:1007C000D2A112000830A00FC3E51294FA748094ED
:0C07D000805004051280EEC2A102000857
:0A08BF00D2A0120008D2A102000826
:10076B00E4FEEEC39408748094805011EF25E0FFF3
:10077B00C2A112000892A01200030E80E5C2A112C2
:07078B000008D2A0020008E3
:1006E900C2A1120008D2A0120008E4FEEEC39408C9
:1006F900748094805017D2A1120008EF25E0FDA262
:0D070900A0E4334DFFC2A11200080E80DFF6
:0107160022C0
:04081700AD3F7F046E
:10081B00AC071207B8AF0412076B1207C0AF051273
:08082B00076B1207C00208B5BB
:0207DC00AD0767
:1007DE001207B8AF0512076B1207C01208AB7FA144
:0C07EE0012076B1207C01206E90208B5E2
:1007FA0012084E120358853E0B853A0C85330DAB11
:0D080A0034AD3DAF3F1204BF12064880E63A
:10087400758901758C3C758AAFD2AFD2A9D28C220E
:100297007F381208847F0C1208847F061208847F37
:1002A700011208847FCF1208847F311208917F8062
:1002B700120884E4F521C3E52194067480948050E4
:1002C70011E52190089E93FF1208911207960521C8
:1002D70080E47F881208847F3A1208917F8B120886
:1002E700847F3A120891120717AD3A7F0912071B4C
:1002F700AD337F0C12071B7FC0120884E4F522C3BD
:10030700E5229405748094805011E5229008A59306
:10031700FF120891120796052280E47FC81208840D
:100327007F3A1208917FCB1208847F3A120891AD69
:100337003F7F06120745120817AD3D7F0912074593
:10034700AD3D7F0512081B120741AD347F06020839
:010357001B8A
:0A069C00ED3395E0FCEB3395E0FA36
:1006A600C3EE648094804036D3EF9417EE64809452
:1006B60080502BC3EC648094804023D3ED943BECB4
:1006C600648094805018C3EA648094804010D3EB11
:1006D600943BEA6480948050057E007F01227E0070
:0306E6007F002270
:1005EC007F011207DC8F3E7F021207DC8F3A7F03FC
:1005FC001207DC8F337F041207DC8F3F7F05120755
:10060C00DC8F3D7F061207DC8F34AF3EEF3395E075
:10061C00FEAD3AAB3312069CEF4E6012AF3FEF3398
:10062C0095E0FEAD3DAB3412069CEF4E700DE4F53B
:0C063C003EF53AF533F53FF53DF534226C
:10084E00C2B7C2A6C2A7C2B41208BF1205EC1202EA
:04085E009702087481
:10064800120741AD347F0612081BE52464014523D7
:10065800700F120741AD347F0612081BE4F523F52D
:1006680024E526640145257013AD3D7F0912074531
:10067800AD3D7F0512081BE4F525F526E52A640142
:100688004529700FAD3F7F0C120745120817E4F596
:0406980029F52A22F4
:1003580020B03CE52C452B70367F05FE12079A200D
:10036800B015753800753901753B00753C0130B022
:10037800FD120862E4F528752B00752C01E4F52DB3
:10038800F52EF52F753001F538F539F53BF53CE5D7
:100398002C6401452B701BE52E452D7015E5306446
:1003A80001452F700D12000E7FCF1208847F311285
:1003B800089120B030E52C6401452B70287F05FE9C
:1003C80012079A20B00930B0FD120862E4F527E45C
:1003D800F52BF52CF52D752E01F52FF530F538F5A3
:1003E80039F53BF53CE52C452B701BE52E640145A2
:1003F8002D7013E530452F700D1201807FCF120844
:07040800847F3212089122EB
:10000E0020B12812079620B122E4F538F539F53BD8
:10001E00753C01052830B1FD120862E528640470B4
:10002E000AF528F538F539F53BF53CE5287003025D
:10003E00017F30B2030200DE12079630B2030200D7
:10004E00DE30B2FD120862E52864017029F53875BC
:10005E003901F53B753C010533AF33EF3395E0FEC7
:10006E00EF643C4E7002F533AD337F0C12071BADBF
:10007E00337F0312081BE52864027029F5387539A1
:10008E0001F53B753C01053AAF3AEF3395E0FEEFD3
:10009E00643C4E7002F53AAD3A7F0912071BAD3A39
:1000AE007F0212081BE52864037025F538753901A7
:1000BE00F53B753C01053EAF3EEF3395E0FEEF6438
:1000CE00184E7002F53E120717AD3E7F0112081B47
:1000DE0030B30302017F12079630B30302017F3063
:1000EE00B3FD120862E5286401702AF538753901EE
:1000FE00F53B753C011533AF33EF3395E0FEBEFF94
:10010E0006BFFF0375333BAD337F0C12071BAD33B8
:10011E007F0312081BE5286402702AF53875390131
:10012E00F53B753C01153AAF3AEF3395E0FEBEFF55
:10013E0006BFFF03753A3BAD3A7F0912071BAD3A76
:10014E007F0212081BE52864037026F53875390105
:10015E00F53B753C01153EAF3EEF3395E0FEBEFF1D
:10016E0006BFFF03753E17120717AD3E7F0112083B
:02017E001B2242
:1001800020B11D12079620B117052730B1FD1208C6
:1001900062E52764047009F5277F0C120884D28C6D
:1001A000E527700302029620B27312079620B26D03
:1001B00030B2FD120862E5276401701B0534AF34CC
:1001C000EF3395E0FEEF643C4E7002F534120741C8
:1001D000AD347F0612081BE5276402701F053DAF92
:1001E0003DEF3395E0FEEF643C4E7002F53DAD3DD2
:1001F0007F09120745AD3D7F0512081BE527640303
:10020000701B053FAF3FEF3395E0FEEF64184E7073
:1002100002F53FAD3F7F0612074512081720B3765F
:1002200012079620B37030B3FD120862E52764010F
:10023000701C1534AF34EF3395E0FEBEFF06BFFFF0
:100240000375343B120741AD347F0612081BE527C6
:1002500064027020153DAF3DEF3395E0FEBEFF0612
:10026000BFFF03753D3BAD3D7F09120745AD3D7FA7
:100270000512081BE5276403701C153FAF3FEF33E1
:1002800095E0FEBEFF06BFFF03753F17AD3F7F063B
:0702900012074512081722B6
:100833001207177F3A120891AD3A7F0912071B7FFF
:0B0843003A120891AD337F0C02071B36
:1004BF00EF650B600302054FED650C600302054FFE
:1004CF00EB650D707BE53945387075E53C453B7044
:1004DF006FE537640170227F86120884E4F50EF50C
:1004EF000F7F20120891050FE50F7002050EC394C0
:1004FF0008E50E940040EA800312083312086212D6
:10050F00064812079630B00930B10630B20320B357
:10051F00B412079620B00530B0FD801620B105301B
:10052F00B1FD800E20B20530B2FD800620B39630AB
:10053F00B3FDD2A37538007539011208330204D404
:10054F00E5394538700AE53C6401453B7002D2A39A
:01055F002279
:10086200C2A37FC87E0012079AD2A37FC87E00026D
:02087200079AE3
:04071700AD3E7F066E
:10071B00ED75F00A84F510ED75F00A8485F011EF94
:10072B002480FF120884E5102430FF120891E51194
:06073B002430FF020891CA
:04074100AD347F0C48
:10074500ED75F00A84F510ED75F00A8485F011EF6A
:1007550024C0FF120884E5102430FF120891E5112A
:060765002430FF020891A0
:0D088400C2B5120792D2B4120796C2B42278
:0D089100D2B5120792D2B4120796C2B4225B
:08079200C2B48F807F057E00D8
:10079A00D3EF9400EE940040147D6E7C00ED1D7042
:0D07AA00011CED4C70F7EF1F70E61E80E3A0
:0107B700221F
:03000B0002040FDD
:10040F00C0E0C0D075D000C004C005C006C00775DD
:10041F008C3C758AB005350536E5356414701DF5CD
:10042F00350534AD347F0612081BAF34EF3395E03A
:10043F00FEEF643C4E7005F523752401AF34EF33A6
:10044F0095E0FEC3EF943CEE64809480400B7534CE
:10045F0000053D752500752601AD3D7F0512081B72
:10046F00AF3DEF3395E0FEC3EF943CEE6480948094
:10047F00400B753D00053F752900752A01AF3FEF11
:10048F003395E0FEEF64184E7002F53F120817E542
:10049F0036640A700EF536E53770047F0180027FEF
:1004AF00008F37D007D006D005D004D0D0D0E0329F
:10056C000207FAE493A3F8E493A34003F68001F2A4
:10057C0008DFF48029E493A3F85407240CC8C33390
:10058C00C4540F4420C8834004F456800146F6DF5F
:10059C00E4800B01020408102040809008C9E47E1E
:1005AC00019360BCA3FF543F30E509541FFEE49354
:1005BC00A360010ECF54C025E060A840B8E493A31B
:1005CC00FAE493A3F8E493A3C8C582C8CAC583CA46
:1005DC00F0A3C8C582C8CAC583CADFE9DEE780BEFE
:0108CB00002C
:00000001FF
